:0A400000C0F9A4B0999282F88090F4
:030000000200916A
:100030007F3C1137DFFC2278FA79FAD8FED9FE220C
:10004000227EFABA0204BB04012290400075B0007F
:10005000E4EA93F5A012003075B001E4EB93F5A04B
:1000600012003075B002E4EC93F5A012003075B0C8
:1000700003E4ED93F5A0120030DECF0DBD0AC27D82
:10008000000CBC06BC7C000BBB0AB67B000A80B12E
:10009000227D007C037B037A021200411200307D36
:0900A000007C007B007A0080F076
:00000001FF
