:0A400000C0F9A4B0999282F88090F4
:0300000002009962
:10003000758901758CD8758AF0D28C308DFDC28D92
:10004000C28C227EFA7F06BA0204BB0401229040D1
:100050000075B000E4EA93F5A012003075B001E439
:10006000EB93F5A012003075B002E4EC93F5A0120A
:10007000003075B003E4ED93F5A0120030DECF7EC2
:10008000FADFCB0DBD0ABC7D000CBC06B67C000BB4
:10009000BB0AB07B000A80AB227D007C037B037A25
:1000A000021200431200307D007C007B007A008049
:0100B000F05F
:00000001FF
