:030000000200AE4D
:03000300020058A0
:1000130002005F1200453090FD0BBB0A4A7B000AC9
:10002300221200453091FD1BBB003C7B091A22754F
:100033008901758CF7758A09D28C308DFDC28DC20A
:100043008C22758901758CFC758A67D28C308DFD85
:10005300C28DC28C220EBE02027E00327E007D0063
:100063007C007B007A003275B08F8DA01200327550
:10007300B04F8CA012003275B02F8BA012003275D6
:10008300B01F8AA0120032309089309194BE0102D1
:1000930080D50DBD0AD17D000CBC0ACB7C000BBB07
:1000A3000AC57B000ABA0ABF7A002275A885D28ADC
:1000B300D2887E007D007C007B007A0012006A807B
:0100C300FB41
:00000001FF
