:0300000002009D5E
:100003000200481200353090FD0BBB0A497B000A01
:10001300221200353091FD1BBB003B7B091A227570
:100023008901758CF7758A09D28C308DFDC28DC21A
:100033008C22758901758CFC758A67D28C308DFD95
:10004300C28DC28C220EBE02027E00327E007D0073
:100053007C007B007A0075B08F8DA012002275B0F2
:100063004F8CA012002275B02F8BA012002275B006
:100073001F8AA012002230908A309195BE0102801F
:10008300D50DBD0AD17D000CBC0ACB7C000BBB0A8D
:10009300C57B000ABA0ABF7A002275A885D28AD224
:1000A300887E007D007C007B007A0012005980FB73
:00000001FF
